:100000005CC000007FC000007DC000007BC000001D
:1000100079C0000077C0000075C0000073C0000008
:1000200071C000006FC000006DC000006BC0000018
:1000300069C000005BC2000065C0000063C0000032
:1000400047C400005FC0000084C60000B4C60000C2
:1000500059C0000057C0000055C0000053C0000048
:1000600051C000004FC00000000000080002010065
:100070000003040700000000000000000102040863
:100080001020408001020408102001020408102002
:10009000040404040404040402020202020203032E
:1000A0000303030300000000250028002B000000CC
:1000B0000000240027002A00000711241FBECFEFF4
:1000C000D8E0DEBFCDBF11E0A0E0B1E0E8E0FFE0A6
:1000D00002C005900D92A434B107D9F722E0A4E440
:1000E000B1E001C01D92A532B207E1F710E0CDE505
:1000F000D0E003C02197FE01FFD6CC35D107D1F760
:1001000091D200C77DCF611101C090C46130E9F385
:1001100062E0FBCF662311F061E0C4C460E0FDCF74
:10012000FC0191E020914C0130914D01232B09F00D
:1001300090E09183089580914C0190914D0101963A
:10014000883E23E0920728F490934D0180934C0160
:10015000089510924D0110924C010895CF92DF92B4
:10016000EF92FF92CF93DF93C0901602D0901702C8
:10017000E0901802F090190220E030E0A901C701D8
:10018000B601A2D387FD0CC020E030E040E751E487
:10019000C701B601E3D2D0E0C0E061E018164CF52B
:1001A00020E030E040E751E4C701B6018DD387FD80
:1001B0000AC020E030E040EA51E4C701B601CED2E7
:1001C00018160CF0E6C020E030E040EA51E4C70128
:1001D000B6017AD387FDE0C0C1E020E030E040EF17
:1001E00051E4C701B601BAD218160CF4C0E0D0E051
:1001F00060E082E08FDF6D2F83E08CDF6C2F84E086
:1002000089DFC1E0D0E020E030E048EE51E46091C9
:1002100016027091170280911802909119029ED2D5
:10022000811102C0D0E0C0E0BE01DD0F880B990B48
:100230009BD220911C0130911D0140911E015091D3
:100240001F0142D318160CF0A9C080910C019091A7
:100250000D01A0910E01B0910F0180931A029093AD
:100260001B02A0931C02B0931D02C0904601D090C7
:100270004701E0904801F0904901C701B60172D2F0
:1002800020912001309121014091220150912301C0
:1002900065D287FF9AC020912401309125014091B9
:1002A00026015091270160912C0170912D018091C0
:1002B0002E0190912F0152D287FF90C060911001C2
:1002C00070911101809112019091130120E030E0B2
:1002D000A901FAD218160CF08AC08091220281116D
:1002E00013C08091080190910901A0910A01B09179
:1002F0000B0180931E0290931F02A0932002B093E3
:10030000210281E08093220220911E0230911F027F
:1003100040912002509121026091040170910501E9
:100320008091060190910701B5D16093FA01709315
:10033000FB018093FC019093FD0160931E0270937A
:100340001F0280932002909321028091FA019091E4
:10035000FB01A091FC01B091FD01809316029093E6
:100360001702A0931802B09319028FEFC81AD80A87
:10037000E80AF80AC0924601D0924701E09248018B
:10038000F0924901DF91CF91FF90EF90DF90CF90F5
:100390000895D1E0C0E02CCFD0E0FCCF20E030E0E9
:1003A000A90160911A0270911B0280911C02909128
:1003B0001D02D4D1811105C080E090E0A0E8BFE328
:1003C0004CCF80E090E0DC0148CF209128013091B3
:1003D000290140912A0150912B0165CF60911A02A9
:1003E00070911B0280911C0290911D026FCF1092A0
:1003F0002202ABCFCF92DF92EF92FF921F93CF9367
:10040000DF93CEEFD1E0E0E0F1E084899589A68921
:10041000B789888F998FAA8FBB8F808D918DA28D80
:10042000B38D8C8F9D8FAE8FBF8F80859185A28578
:10043000B38588A399A3AAA3BBA380819181A2813C
:10044000B3818093FA019093FB01A093FC01B093D8
:10045000FD01188AC12CD12C7601C394C98ADA8A8D
:10046000EB8AFC8A61E082E04EDE11E01D8B18868B
:10047000C986DA86EB86FC8661E083E044DE1D8770
:100480001882C982DA82EB82FC8261E084E03BDE82
:100490001D83DF91CF911F91FF90EF90DF90CF9060
:1004A000089580910E02811103C081E080930E02B5
:1004B00080910602811103C081E080930602809141
:1004C000FE01811103C081E08093FE01089526E0C2
:1004D00030E040E855E260E070E090E080E000C08D
:1004E000892B19F48DE591E0D4C308951F920F92E2
:1004F0000FB60F9211242F933F934F935F936F93F7
:100500007F938F939F93AF93BF93EF93FF9386E077
:100510009FEF909385008093840032D0FF91EF91FC
:10052000BF91AF919F918F917F916F915F914F910B
:100530003F912F910F900FBE0F901F90189586E05E
:100540009FEF9093850080938400AFE6B0E08C919C
:100550008E7F8C93E0E8F0E080818C7F8083E1E8FF
:10056000F0E08081877E80838081836080838081CA
:100570008B7F80838C9181608C93089581E00895B6
:10058000CF93DF9300D0CDB7DEB78091500191E0DB
:10059000980F90935001882369F021E030E0309368
:1005A000530120935201809350010F900F90DF91DF
:1005B000CF910895CE010196B3DD7894BCDDF89417
:1005C000809150018150809350018A81882389F065
:1005D00080914F0191E0980F90934F01882349F04B
:1005E00021E030E0309353012093520180934F017A
:1005F000DCCF80914F018823C1F28091510181119C
:10060000D4CF81E0809351017894A8DDF894809153
:100610004F01815080934F0180915101815080930F
:100620005101C3CFCF93DF93109224021092230283
:1006300099D14DDFC0913001D091310119821882DA
:10064000D9DEF8947CDF2881398181E0232B09F001
:1006500080E0809323027894789480912302811122
:1006600007C01FDFF89490E080E0DF91CF910895FC
:100670002881398181E0232B09F480E080932402D2
:100680009091240281E0911180E08093230276DF33
:10069000E4CF5058BB27AA270ED0DCC0CDD030F015
:1006A000D2D020F031F49F3F11F41EF4C2C00EF4FA
:1006B000E095E7FBB8C0E92FDED080F3BA176207F8
:1006C00073078407950718F071F49EF5F6C00EF4D1
:1006D000E0950B2EBA2FA02D0B01B90190010C0152
:1006E000CA01A0011124FF27591B99F0593F50F46A
:1006F000503E68F11A16F040A22F232F342F4427C2
:10070000585FF3CF469537952795A795F0405395B9
:10071000C9F77EF41F16BA0B620B730B840BBAF089
:100720009150A1F0FF0FBB1F661F771F881FC2F7F4
:100730000EC0BA0F621F731F841F48F48795779508
:100740006795B795F7959E3F08F0B3CF9395880FBF
:1007500008F09927EE0F97958795089540D008F4F3
:1007600081E00895E89409C097FB3EF49095809548
:10077000709561957F4F8F4F9F4F9923A9F0F92F67
:1007800096E9BB279395F695879577956795B795E5
:10079000F111F8CFFAF4BB0F11F460FF1BC06F5FCB
:1007A0007F4F8F4F9F4F16C0882311F096E911C0DD
:1007B000772321F09EE8872F762F05C0662371F0FE
:1007C00096E8862F70E060E02AF09A95660F771F12
:1007D000881FDAF7880F9695879597F90895990FEE
:1007E0000008550FAA0BE0E8FEEF16161706E807FB
:1007F000F907C0F012161306E407F50798F0621B1C
:10080000730B840B950B39F40A2661F0232B242BF0
:10081000252B21F408950A2609F4A140A6958FEF0F
:10082000811D811D089597F99F6780E870E060E061
:1008300008959FEF80EC089500240A941616170679
:1008400018060906089500240A94121613061406C1
:1008500005060895092E0394000C11F4882352F024
:10086000BB0F40F4BF2B11F460FF04C06F5F7F4FDC
:100870008F4F9F4F089557FD9058440F551F59F0C3
:100880005F3F71F04795880F97FB991F61F09F3F7D
:1008900079F087950895121613061406551FF2CFA6
:1008A0004695F1DF08C0161617061806991FF1CFF6
:1008B00086957105610508940895E894BB2766271D
:1008C0007727CB0197F908958ADF08F48FEF089511
:1008D0001F920F920FB60F9211242F933F938F9375
:1008E0009F93AF93BF938091550190915601A09132
:1008F0005701B09158013091540123E0230F2D3757
:1009000058F50196A11DB11D209354018093550106
:1009100090935601A0935701B093580180915901CB
:1009200090915A01A0915B01B0915C010196A11DCB
:10093000B11D8093590190935A01A0935B01B0932C
:100940005C01BF91AF919F918F913F912F910F903B
:100950000FBE0F901F90189526E8230F0296A11D39
:10096000B11DD2CF789484B5826084BD84B5816096
:1009700084BD85B5826085BD85B5816085BDEEE6A7
:10098000F0E0808181608083E1E8F0E01082808186
:1009900082608083808181608083E0E8F0E08081F4
:1009A00081608083E1EBF0E0808184608083E0EB14
:1009B000F0E0808181608083EAE7F0E080818460FC
:1009C0008083808182608083808181608083808158
:1009D000806880831092C1000895833081F028F4EC
:1009E000813099F08230A9F008958730A9F08830DD
:1009F000C9F08430B1F4809180008F7D03C0809174
:100A000080008F7780938000089584B58F7784BDB0
:100A1000089584B58F7DFBCF8091B0008F77809350
:100A2000B00008958091B0008F7DF9CFCF93DF9310
:100A300090E0FC01E458FF4F249180579F4FFC0148
:100A400084918823C9F090E0880F991FFC01E2553A
:100A5000FF4FA591B491FC01EC55FF4FC591D49186
:100A600061110DC09FB7F8948C91209582238C93CF
:100A70008881282328839FBFDF91CF91089562301A
:100A800051F49FB7F8943C91822F809583238C93E7
:100A9000E8812E2BEFCF8FB7F894EC912E2B2C936F
:100AA0008FBFEACF1F93CF93DF93282F30E0F90158
:100AB000E859FF4F8491F901E458FF4FD491F901AF
:100AC000E057FF4FC491CC23A1F0162F811185DF91
:100AD000EC2FF0E0EE0FFF1FEC55FF4FA591B49106
:100AE0008FB7F894EC91111108C0D095DE23DC93F8
:100AF0008FBFDF91CF911F910895DE2BF8CFFC01BE
:100B0000918D228D892F90E0805C9F4F821B9109EF
:100B10008F7399270895FC01918D828D981731F07C
:100B2000828DE80FF11D858D90E008958FEF9FEF86
:100B30000895FC01918D828D981761F0A28DAE0F02
:100B4000BF2FB11D5D968C91928D9F5F9F73928F89
:100B500090E008958FEF9FEF0895FC01538D448D31
:100B6000252F30E0842F90E0821B930B541710F058
:100B7000CF96089501970895FC01A48DA80FB92F71
:100B8000B11DA35ABF4F2C91848D90E001968F73B5
:100B90009927848FA689B7892C93A089B1898C91D4
:100BA000837080648C93938D848D981306C0028823
:100BB000F389E02D80818F7D80830895CF93DF932B
:100BC000EC01888D8823B1F0AA89BB89E889F9896D
:100BD0008C9185FD03C0808186FD0CC00FB607FC9B
:100BE000F7CF8C9185FFF2CF808185FFEDCFCE01CD
:100BF000C3DFEACFDF91CF910895EF92FF920F9379
:100C00001F93CF93DF93EC0181E0888F9B8D8C8DB8
:100C100098131AC0E889F989808185FF15C09FB7AC
:100C2000F894EE89FF896083E889F989808183706F
:100C3000806480839FBF81E090E0DF91CF911F911E
:100C40000F91FF90EF900895F62E0B8D10E00F5F3F
:100C50001F4F0F731127E02E8C8D8E110BC00FB616
:100C600007FCFACFE889F989808185FFF5CFCE01AD
:100C700083DFF2CFEB8DEC0FFD2FF11DE35AFF4F19
:100C8000F0829FB7F8940B8FEA89FB89808180629C
:100C9000D0CFCF92DF92EF92FF921F93CF93DF934B
:100CA000EC016A017B01122FE889F98982E08083D7
:100CB000C11481EED806E104F10499F060E079E016
:100CC0008DE390E0A7019601F5D02150310941094B
:100CD00051095695479537952795211580E1380795
:100CE00090F0E889F989108260E874E88EE190E07C
:100CF000A7019601DFD021503109410951095695CC
:100D0000479537952795EC85FD853083EE85FF85E2
:100D10002083188EEC89FD891083EA89FB89808104
:100D200080618083EA89FB89808188608083EA8989
:100D3000FB89808180688083EA89FB8980818F7D3F
:100D40008083DF91CF911F91FF90EF90DF90CF9044
:100D500008951F920F920FB60F9211242F938F9325
:100D60009F93EF93FF93E0916D01F0916E0180816D
:100D7000E0917301F091740182FD1BC0908180911C
:100D800076018F5F8F7320917701821741F0E09198
:100D90007601F0E0E35AFE4F958F80937601FF9144
:100DA000EF919F918F912F910F900FBE0F901F90F9
:100DB00018958081F4CF1F920F920FB60F921124D5
:100DC0002F933F934F935F936F937F938F939F9353
:100DD000AF93BF93EF93FF938DE591E0CDDEFF914D
:100DE000EF91BF91AF919F918F917F916F915F91A3
:100DF0004F913F912F910F900FBE0F901F9018951C
:100E0000EDE5F1E01382128288EE93E0A0E0B0E01D
:100E100084839583A683B78386E391E0918380835F
:100E200085EC90E09587848784EC90E097878687AF
:100E300080EC90E0918B808B81EC90E0938B828BA7
:100E400082EC90E0958B848B86EC90E0978B868B80
:100E5000118E128E138E148E0895AF92BF92CF9280
:100E6000DF92EF92FF920F931F93CF93DF936C016A
:100E70007B018B01040F151FEB015E01AE18BF084B
:100E8000C017D10759F06991D601ED91FC910190FD
:100E9000F081E02DC6010995892B79F7C501DF9115
:100EA000CF911F910F91FF90EF90DF90CF90BF9067
:100EB000AF900895A1E21A2EAA1BBB1BFD010DC025
:100EC000AA1FBB1FEE1FFF1FA217B307E407F507FA
:100ED00020F0A21BB30BE40BF50B661F771F881FD6
:100EE000991F1A9469F760957095809590959B016C
:100EF000AC01BD01CF010895EE0FFF1F0590F491E5
:080F0000E02D0994F894FFCFE5
:100F0800000000000000803F0000803F0000803F9C
:100F18000000803F0000803F00000000000000004B
:100F2800000000400000803F0000000000000000BA
:100F3800440100000000FD052D07AD05DE057F0515
:040F480099058B0577
:00000001FF
