:1000000061C0000087C0000085C0000083C0000000
:1000100081C000007FC000007DC000007BC00000E8
:1000200079C0000077C0000075C0000073C00000F8
:1000300071C000006FC000006DC000006BC0000008
:100040000C94E60E67C000000C9474110C94A61179
:1000500061C000005FC000005DC000005BC0000028
:1000600059C0000057C00000000000080002010055
:100070000003040700000000000000000102040863
:100080001020408001020408102001020408102002
:10009000040404040404040402020202020203032E
:1000A00003030303000000002300260029000000D2
:1000B0000000250028002B0000000000240027007D
:1000C0002A00CB1111241FBECFEFD8E0DEBFCDBF79
:1000D00011E0A0E0B1E0EEE9F4E202C005900D927B
:1000E000AE3CB107D9F723E0AEECB1E001C01D9200
:1000F000A534B207E1F710E0C2E6D0E004C02197D2
:10010000FE010E944712C136D107C9F70E94E20BD7
:100110000C944D1275CF611102C00C94B90F61306F
:10012000E1F362E0FACF662319F061E00C94F50F79
:1001300060E0FCCF0E94221021E0019709F020E04E
:10014000822F08950F931F93CF93DF93EA0140917D
:10015000D2015091D301452B81F49C81882361F118
:1001600091110BC0F90180859185A285B3858883A3
:100170009983AA83BB8381E08C838C818823B9F027
:10018000D9018B01288139814A815B8114966D9157
:100190007D918D919C9117970E94180CF8016083B6
:1001A000718382839383688379838A839B83DF91BE
:1001B000CF911F910F9108959923F9F21C82DDCF01
:1001C0008F929F92AF92BF92CF92DF92EF92FF9267
:1001D000CF93DF934B015C01EA01C880D980EA80AC
:1001E000FB8020E030E0A9010E947F0E181674F118
:1001F00020E030E0A901C501B4010E948F0C881FE6
:100200008827881F91E0892790E025E0C216D10455
:10021000E104F10409F463C0AC01092E000C660B83
:10022000770BC416D506E606F70699F440E050E0D1
:10023000BA01CB01BA01DF91CF91FF90EF90DF902F
:10024000CF90BF90AF909F908F90089582E090E004
:10025000DCCF23E0C216D104E104F10451F4E2E062
:10026000F0E08130910581F421E030E0F0E0E0E061
:1002700010C024E0C216D104E104F104D1F4E3E09B
:10028000F0E08130910581F325E030E08230910586
:1002900009F140E050E0BA01E417F507D9F18130E7
:1002A000910519F442305105C9F125303105D1F4D9
:1002B00028C021E0C216D104E104F10419F4F0E0F1
:1002C000E0E0E2CF25E030E0F0E0E0E0CD28CE282D
:1002D000CF28F9F642E050E060E070E0DDCF9C010D
:1002E00085E090E0A901330F660B770B48835983B3
:1002F0006A837B838530910509F498CF40E050E014
:10030000BA01092E000CAA0BBB0B88839983AA8320
:10031000BB838FCF40E050E0BA01C7CF83E090E0CD
:1003200042E050E060E070E0C0CF4F925F926F9289
:100330007F928F929F92AF92BF92CF92DF92EF9275
:10034000FF920F931F93CF93DF9300D000D000D084
:10035000CDB7DEB76B017C0149015A0120E030E0E6
:10036000A901C501B4010E948F0C81110CC020E0CD
:1003700030E0A901C701B6010E948F0C811173C042
:100380007501640170C0D701C60188279927A0783C
:10039000BF770097A048BF4779F421E030E0D7014C
:1003A000C601AF77BB27892B8A2B8B2B11F430E04A
:1003B00020E0232B09F04FC0D501C40188279927DD
:1003C000A078BF770097A048BF4771F421E030E0E4
:1003D000D501C401AF77BB27892B8A2B8B2B11F456
:1003E00030E020E0232BB9F540908F02509090022E
:1003F0006090910270909202A3019201C701B60130
:100400000E948F0C882339F18091390390913A032F
:10041000A0913B03B0913C0389839A83AB83BC8357
:100420009C01AD01C701B6010E948F0C882399F091
:1004300020E030E0A901C701B6010E948F0C8111B4
:100440002BC0A501940160E070E0CB010E94930CE9
:100450006B017C0108C0C0903503D0903603E0905A
:100460003703F0903803C701B60126960FB6F8940B
:10047000DEBF0FBECDBFDF91CF911F910F91FF90D7
:10048000EF90DF90CF90BF90AF909F908F907F9034
:100490006F905F904F900895A3019201C501B40140
:1004A0000E948F0C882399F129813A814B815C81CC
:1004B000C501B4010E948F0C882349F1A501940164
:1004C000C701B6010E94830D162F7E838D83092FED
:1004D0007724739420E030E0A9010E948F0C8111F1
:1004E000712C20E030E0A901612F7E818D81902F59
:1004F0000E948F0C811124C020E030E0A9017720F8
:1005000009F463C0C501B4010E94830EA1CF20E0AD
:1005100030E0A901C501B4010E948F0C881F882713
:10052000881F898320E030E0A901C701B6010E943D
:100530008F0C881F8827881F9981981321CF93CF0C
:10054000C501B4010E94690D9B01AC01C501B40154
:100550000E947F0E181684F6A5019401C701B6010A
:100560000E94930C2B013C01E89477F820E030E0E6
:1005700040E05FE3C301B2010E94180C0E94690DC4
:100580009B01AC01C301B2010E94170C9B01AC019D
:100590005F7729833A834B835C8320E030E040E03F
:1005A00054E3C301B2010E94830E9B01AC01772486
:1005B000739469817A818B819C810E947F0E1816C9
:1005C0000CF0712C81E0782697CFC701B6010E940C
:1005D0008F0CF82EFF1CFF24FF1C20E030E0A90147
:1005E000C501B4010E948F0C881F8827881FF81648
:1005F00049F0212F3E814D81502FC501B4010E9449
:10060000180C26CFC12EDE80ED80F02E2CCFCF929D
:10061000DF92EF92FF926B017C019F7720E030E048
:1006200040E859E50E948F0C87FF2BC020E030E0A6
:1006300040E05FE3C701B6010E947F0E87FD0EC058
:1006400020E030E040E05FE3C701B6010E94180CF3
:10065000FF90EF90DF90CF900C94690D20E030E098
:1006600040E05FEBC701B6010E947F0E181684F4CC
:1006700020E030E0A901C701B6010E94830E6B01A2
:100680007C01C701B601FF90EF90DF90CF900895F5
:1006900020E030E040E05FE3C701B6010E94170CA4
:1006A000FF90EF90DF90CF900C947C0C4F925F9274
:1006B0006F927F928F929F92AF92BF92CF92DF9272
:1006C000EF92FF921F93CF93DF93CDB7DEB72F97B3
:1006D0000FB6F894DEBF0FBECDBF8091D4019091CC
:1006E000D501892BB1F420E030E0A90160913701F8
:1006F000709138018091390190913A010E948F0CDC
:10070000882321F081E090913303911180E0809360
:1007100031038091D2019091D301892B09F009C353
:10072000C0900301D0900401E0900501F090060113
:10073000A70196016091C2027091C3028091C40228
:100740009091C5020E948F0C882341F0C092C20292
:10075000D092C302E092C402F092C5028BE0EADCC0
:100760002DEA31E04DE952E062E073E0EBDC20E09D
:1007700030E040E251E46091020370910303809104
:100780000403909105030E948F0C882309F4D3C2BF
:100790001092120310921303109214031092150377
:1007A0008091D2019091D301892B09F0D1C2C090E0
:1007B0000701D0900801E0900901F0900A01A7011B
:1007C00096016091B6027091B7028091B802909143
:1007D000B9020E948F0C882341F0C092B602D092D9
:1007E000B702E092B802F092B9028CE0A3DC21EAF1
:1007F00031E048E952E06EEF72E0A4DC20E030E046
:1008000040E251E46091FE027091FF02809100038A
:10081000909101030E948F0CC12CD12C7601811183
:1008200006C0C12CD12C90E8E92E9FE3F92E8091CF
:10083000D2019091D301892B09F08CC280900B01D9
:1008400090900C01A0900D01B0900E01A5019401B3
:100850006091AA027091AB028091AC029091AD02BE
:100860000E948F0C882341F08092AA029092AB02E2
:10087000A092AC02B092AD028DE05CDC25E931E0E3
:1008800043E952E06AEF72E05DDC20E030E040E2F4
:1008900051E46091FA027091FB028091FC02909108
:1008A000FD020E948F0C812C912C5401811106C0F5
:1008B000812C912C80E8A82E8FE3B82E1092DE02B6
:1008C0001092DF021092E0021092E10220E030E08C
:1008D00040E85FE360911203709113038091140369
:1008E000909115030E948F0C882351F020E030E096
:1008F00040E85FE3C701B6010E948F0C81110CC074
:1009000080E090E0A0E8BFE38093DE029093DF02F6
:10091000A093E002B093E1026091DE027091DF02E9
:100920008091E0029091E1024AE153E049DC672BBB
:10093000682B692B21F08091000180932E0346E102
:1009400053E0C501B4013CDC672B682B692B41F0F7
:1009500080912E038F3F09F4FFC18F5F80932E0398
:1009600040903B0150903C0160903D0170903E01F1
:1009700060912E0370E090E080E00E942C0DA301B6
:100980009201D3DC69837A838B839C831092F60275
:100990001092F7021092F8021092F902409012039E
:1009A00050901303609014037090150320E030E022
:1009B00040E85FE3C301B201B2D78111D0C111E0B9
:1009C00020E030E0A901C701B601A9D7811110E0EC
:1009D000112309F4C5C121E02F8720E030E0A901EF
:1009E000C501B4019CD781111F868F85811126C056
:1009F00020E030E0A901C301B20191D781111EC0EE
:100A000020E030E040E85FE3C701B60188D78823E3
:100A100049F020E030E040E85FE3C501B4017FD752
:100A200081110CC080E090E0A0E8BFE38093F60263
:100A30009093F702A093F802B093F9026091F60246
:100A40007091F7028091F8029091F90242E253E02E
:100A5000B7DB672B682B692B21F080910101809314
:100A60002F036091120370911303809114039091EE
:100A700015034EE153E0A4DB672B682B692B41F093
:100A800080912F038F3F09F46DC18F5F80932F03F7
:100A900040903F01509040016090410170904201B0
:100AA00060912F0370E090E080E0D6D7A30192011F
:100AB0003CDC6D837E838F8398871092F2021092C4
:100AC000F3021092F4021092F50220E030E0A90146
:100AD0006091120370911303809114039091150398
:100AE0001ED7811142C120E030E040E85FE3C7013A
:100AF000B60115D7811139C191E09D8720E030E022
:100B0000A901C501B4010BD781111D862D852111C5
:100B100017C0111109C020E030E040E85FE3C501D3
:100B2000B401FDD681110CC080E090E0A0E8BFE3E5
:100B30008093F2029093F302A093F402B093F50233
:100B40006091F2027091F3028091F4029091F502AB
:100B50004AE253E035DB672B682B692B21F080914B
:100B600002018093300346E253E0C701B60128DB5F
:100B7000672B682B692B41F0809130038F3F09F47C
:100B8000F6C08F5F80933003409043015090440142
:100B900060904501709046016091300370E090E0F4
:100BA00080E05AD7A3019201C0DB69877A878B87DF
:100BB0009C8720E030E0A901C701B601B0D68111C1
:100BC000D9C020E030E0A9016091120370911303B5
:100BD0008091140390911503A2D611E081110CC0ED
:100BE00020E030E0A901C501B40199D6811101C00E
:100BF00010E0112309F4F6C180913D03813009F41E
:100C0000F1C11092EA021092EB021092EC021092E3
:100C1000ED02409012035090130360901403709003
:100C200015038090060390900703A0900803B090EE
:100C300009038F85882309F49FC020E030E0A901D3
:100C40006D817E818F8198856AD6882309F4A1C041
:100C500080E090E0A0E8BFE38093EA029093EB028B
:100C6000A093EC02B093ED0220E030E0A901609186
:100C70000A0370910B0380910C0390910D034FD6E2
:100C800081112EC020E030E0A90169817A818B8139
:100C90009C8145D6811124C020E030E0A901C50126
:100CA000B4013DD681111CC020E030E0A901C30190
:100CB000B20135D6811114C020E030E0A901C7018E
:100CC000B6012DD681110CC080E090E0A0E4B0E424
:100CD0008093EA029093EB02A093EC02B093ED02B2
:100CE00020E030E040E85FEBC501B40118D6811187
:100CF00095C020E030E0A90169857A858B859C85C7
:100D00000ED6882309F4A9C080E090E0A0E4B0E406
:100D10008093EA029093EB02A093EC02B093ED0271
:100D20008091690190916A01A0916B01B0916C0171
:100D3000ADC080E015CD80E090E0A0E8BFE38093F7
:100D4000120390931303A0931403B093150328CDBB
:100D500080E04DCD80E092CD10922E0301CE10E0C8
:100D60001F8646CE10922F0393CE1D86D2CE1092B0
:100D700030030ACF11E040CF9D8520E030E0A9018B
:100D8000992389F069857A858B859C85C8D58111E1
:100D900005C080E090E0A0E4B0E45ECF80E090E0A9
:100DA000A0E8BFEB59CFC301B201B9D581115CCF27
:100DB00081E090E09E878D8720E030E0A901C701A7
:100DC000B601ADD5882311F01E861D868D859E85C2
:100DD000892B09F449CF20E030E040E85FE36981E6
:100DE0007A818B819C819BD5811105C080E090E048
:100DF000A0E0B0E431CF20E030E0A90169817A8140
:100E00008B819C818CD581112FCF8092EA029092A8
:100E1000EB02A092EC02B092ED0226CF20E030E08F
:100E200040E85FE3C501B4017AD5811116C020E026
:100E300030E0A9016D817E818F81988570D58823EE
:100E400061F080E090E0A0E4B0E48093EA02909347
:100E5000EB02A093EC02B093ED028090EA02909036
:100E6000EB02A090EC02B090ED0220E030E040E810
:100E70005FE3C501B40153D5811111C080917101A7
:100E800090917201A0917301B09174018093E2027C
:100E90009093E302A093E402B093E5021CC020E02B
:100EA00030E040E85FEBC501B40139D5811109C0DC
:100EB00080916D0190916E01A0916F01B0917001D0
:100EC000E5CF20E030E040E450E4C501B40127D58F
:100ED000882309F425CF6091E2027091E3028091AA
:100EE000E4029091E50287D5613071058105910595
:100EF000A1F0633071058105910509F494C16F3F3C
:100F00007F4F8F4F9F4FC9F4809161019091620193
:100F1000A0916301B091640108C080916501909136
:100F20006601A0916701B09168018093E6029093F9
:100F3000E702A093E802B093E90220E030E0A901C3
:100F4000C301B201ECD4811177C181E0898320E033
:100F500030E0A901C701B601E2D4811101C01982B4
:100F600099819923E1F090913E039130C1F0409135
:100F70001701509118016091190170911A01409365
:100F8000EE025093EF026093F0027093F1024093EF
:100F90000E0350930F036093100370931103898124
:100FA00080933E038091E6029091E702A091E802CF
:100FB000B091E9028093060390930703A09308037E
:100FC000B09309038091EE029091EF02A091F0029C
:100FD000B091F10280930A0390930B03A0930C034A
:100FE000B0930D0310933D03C090EA02D090EB0242
:100FF000E090EC02F090ED0220E030E040E85FE3AA
:10100000C701B6018CD481111AC180918D019091D4
:101010008E01A0918F01B09190018093D6029093A0
:10102000D702A093D802B093D902809191019091F8
:101030009201A0919301B09194018093DA02909370
:10104000DB02A093DC02B093DD0220914B013091D2
:101050004C0140914D0150914E016091D60270912A
:10106000D7028091D8029091D90249D618160CF077
:101070004CC16091310370E090E080E0EDD460936A
:1010800012037093130380931403909315036091DC
:101090001203709113038091140390911503B7DA32
:1010A0006B017C01C0921203D0921303E0921403EF
:1010B000F092150320E030E040E853E430D46FEFC5
:1010C00087FF0CC020E030E0A901C701B60117D6A8
:1010D00060E087FD03C0C701B60192D488E023D841
:1010E0008091D4019091D501892BA9F420E030E0C2
:1010F000A90160914F01709150018091510190912F
:1011000052010DD4882321F081E090913403911194
:1011100080E0809332032091570130915801409133
:10112000590150915A016091DA027091DB0280916D
:10113000DC029091DD02E3D518160CF0F7C0609147
:10114000320370E090E080E087D4609312037093E4
:10115000130380931403909315036091120370910D
:101160001303809114039091150351DA6B017C01F4
:10117000C0921203D0921303E0921403F09215036D
:1011800020E030E040E853E4CAD36FEF87FF0CC0A3
:1011900020E030E0A901C701B601B1D560E087FDCC
:1011A00003C0C701B6012CD489E00E94930080914E
:1011B000D4019091D501009741F4209131032093FF
:1011C000330320913203209334032091D2013091D4
:1011D000D3012F5F3F4F2436310508F0B8C030935C
:1011E000D3012093D2010196803921E0920708F0C3
:1011F000B3C09093D5018093D4012F960FB6F89485
:10120000DEBF0FBECDBFDF91CF911F91FF90EF905A
:10121000DF90CF90BF90AF909F908F907F906F9016
:101220005F904F90089580915D0190915E01A09133
:101230005F01B091600179CE21E0298394CE20E056
:1012400030E040E85FEBC701B60169D3811119C0F6
:101250008091850190918601A0918701B0918801CC
:101260008093D6029093D702A093D802B093D9026C
:101270008091890190918A01A0918B01B0918C019C
:10128000DCCE20E030E040E050E4C701B60147D3B7
:10129000811119C080917D0190917E01A0917F0103
:1012A000B09180018093D6029093D702A093D80288
:1012B000B093D9028091810190918201A091830124
:1012C000B0918401BACE20E030E040E450E4C701A0
:1012D000B60125D38111B9CE809175019091760127
:1012E000A0917701B09178018093D6029093D702B4
:1012F000A093D802B093D9028091790190917A019C
:10130000A0917B01B0917C0198CE809113019091C6
:101310001401A0911501B0911601809312039093CE
:101320001303A0931403B0931503B1CE80910F0162
:1013300090911001A0911101B091120180931203BC
:1013400090931303A0931403B093150306CF109248
:10135000D3011092D20147CF1092D5011092D4013F
:101360004CCF8F929F92AF92BF92FF920F931F9399
:10137000CF93DF9380E090E0A0ECBFEF8093350344
:1013800090933603A0933703B0933803809387027A
:1013900090938802A0938902B0938A0280E090E043
:1013A000A0E8BFE780938F0290939002A0939102F0
:1013B000B093920280938B0290938C02A0938D0243
:1013C000B0938E0280E090E0A0E8BFEF80933903F5
:1013D00090933A03A0933B03B0933C0380933F0365
:1013E00090934003A0934103B0934203EDE3F3E0F5
:1013F000FF24F394F182F082C3E9D2E000E011E02F
:1014000080915B018093330385E090E0A0E0B0E041
:101410008093160390931703A0931803B0931903B6
:1014200080931A0390931B03A0931C03B0931D0396
:10143000F801208120932E0380931E0390931F03B5
:10144000A0932003B093210380932203909323035E
:10145000A0932403B0932503218120932F0380932D
:10146000260390932703A0932803B0932903809326
:101470002A0390932B03A0932C03B0932D03828116
:101480008093300380915C01809334038091B50197
:101490009091B601A091B701B091B8018A879B875E
:1014A000AC87BD878091AD019091AE01A091AF0155
:1014B000B091B0018093020390930303A0930403BF
:1014C000B09305038091A9019091AA01A091AB016D
:1014D000B091AC018D839E83AF83B8878091A101C9
:1014E0009091A201A091A301B091A4018093FE026A
:1014F0009093FF02A0930003B093010380919D019C
:1015000090919E01A0919F01B091A0018883998341
:10151000AA83BB838091950190919601A091970138
:10152000B09198018093FA029093FB02A093FC0281
:10153000B093FD0287A190A5A1A5B2A58093060353
:1015400090930703A0930803B093090383A594A580
:10155000A5A5B6A580930A0390930B03A0930C0353
:10156000B0930D0387A590A9A1A9B2A98093E20227
:101570009093E302A093E402B093E50283A994A9B7
:10158000A5A9B6A98093E6029093E702A093E8028A
:10159000B093E902878D90A1A1A1B2A180930E031F
:1015A00090930F03A0931003B0931103838D948D38
:1015B000A58DB68D8093EE029093EF02A093F0027A
:1015C000B093F10283A194A1A5A1B6A18093EA02F0
:1015D0009093EB02A093EC02B093ED02809147014F
:1015E00090914801A0914901B0914A018093D6029F
:1015F0009093D702A093D802B093D902809153015F
:1016000090915401A0915501B09156018093DA0256
:101610009093DB02A093DC02B093DD021FA28381D2
:101620009481A581B6818FA798ABA9ABBAAB812C69
:10163000912C5401839488A699A6AAA6BBA660E023
:101640008BE00E948B00FCA61B8EF80187819085A1
:10165000A185B2858BA39CA3ADA3BEA38C8E9D8ECA
:10166000AE8EBF8E60E08CE00E948B00F8A21F86D9
:10167000F80183859485A585B6858F8B988FA98F72
:10168000BA8F888A998AAA8ABB8A60E08DE00E9414
:101690008B00FC8A1BAE8CAE9DAEAEAEBFAE61E0E1
:1016A00088E00E948B00F092D3021BAA8CAA9DAA0C
:1016B000AEAABFAA61E089E00E948B00F8AEDF917C
:1016C000CF911F910F91FF90BF90AF909F908F90FF
:1016D000089526E030E040E855E260E070E090E0F8
:1016E00080E000C0892B19F48AEE91E09DC5089531
:1016F0000895CF92DF92EF92FF920F931F93B0D392
:101700006093D6017093D7018093D8019093D9014B
:101710000091DA011091DB012091DC013091DD01B3
:101720006B017C01C01AD10AE20AF30A9701860113
:10173000083E13402105310508F16093DA017093EA
:10174000DB018093DC019093DD0125D089D30091EA
:10175000DA011091DB012091DC013091DD01601B89
:10176000710B820B930B683E73408105910570F0FD
:1017700081E090E09093E0018093DF0181E01F9190
:101780000F91FF90EF90DF90CF9008951092E001BD
:101790001092DF01F3CF8091DE0191E0980F9093DA
:1017A000DE01882349F021E030E03093E00120930E
:1017B000DF018093DE0108950E9456038091DE01CF
:1017C0008150F7CFCF93DF931092440310924303DD
:1017D0006CD37FDFC091B901D091BA011982188210
:1017E000C0DDF89485DF2881398181E0232B09F061
:1017F00080E080934303789480914303811106C075
:10180000F89490E080E0DF91CF91089528813981AC
:1018100081E0232B09F480E08093440390914403FA
:1018200081E0911180E08093430363DFE5CF50585E
:10183000BB27AA270ED012C203D230F008D220F064
:1018400031F49F3F11F41EF4F8C10EF4E095E7FB6C
:10185000C5C1E92F14D280F3BA1762077307840752
:10186000950718F071F49EF543C20EF4E0950B2E27
:10187000BA2FA02D0B01B90190010C01CA01A001E2
:101880001124FF27591B99F0593F50F4503E68F13D
:101890001A16F040A22F232F342F4427585FF3CF7E
:1018A000469537952795A795F0405395C9F77EF44F
:1018B0001F16BA0B620B730B840BBAF09150A1F098
:1018C000FF0FBB1F661F771F881FC2F70EC0BA0F1E
:1018D000621F731F841F48F4879577956795B795A6
:1018E000F7959E3F08F0B3CF9395880F08F099279E
:1018F000EE0F979587950895E4D180F09F3740F4D7
:1019000091110EF4F6C160E070E080E89FE3089565
:1019100026F01B16611D711D811D66C180C13AD163
:1019200008F481E008950CD099C191D140F088D19C
:1019300030F021F45F3F19F051C15111DAC17DC17E
:101940009ED198F39923C9F35523B1F3951B550BF9
:10195000BB27AA2762177307840738F09F5F5F4F82
:10196000220F331F441FAA1FA9F333D00E2E3AF0C3
:10197000E0E830D091505040E695001CCAF729D0DD
:10198000FE2F27D0660F771F881FBB1F261737072C
:101990004807AB07B0E809F0BB0B802DBF01FF275C
:1019A00093585F4F2AF09E3F510568F017C1A1C1BF
:1019B0005F3FECF3983EDCF3869577956795B79596
:1019C000F7959F5FC9F7880F911D9695879597F9B1
:1019D0000895E1E0660F771F881FBB1F621773072A
:1019E0008407BA0720F0621B730B840BBA0BEE1F3F
:1019F00088F7E095089504D06894B1117AC10895EC
:101A000046D188F09F5790F0B92F9927B751A0F091
:101A1000D1F0660F771F881F991F1AF0BA95C9F782
:101A200012C0B13081F064D1B1E0089561C1672F77
:101A3000782F8827B85F39F0B93FCCF38695779532
:101A40006795B395D9F73EF490958095709561951B
:101A50007F4F8F4F9F4F0895E89409C097FB3EF446
:101A600090958095709561957F4F8F4F9F4F9923EB
:101A7000A9F0F92F96E9BB279395F6958795779569
:101A80006795B795F111F8CFFAF4BB0F11F460FF29
:101A90001BC06F5F7F4F8F4F9F4F16C0882311F081
:101AA00096E911C0772321F09EE8872F762F05C095
:101AB000662371F096E8862F70E060E02AF09A9530
:101AC000660F771F881FDAF7880F9695879597F925
:101AD0000895F7D080F09F3740F491110EF009C1BE
:101AE00060E070E080E89FEB089526F41B16611D0E
:101AF000711D811D79C093C0A3D018F011F0A7D03B
:101B000038F49BC0F6C0E92FBAD0B0F35523C9F31F
:101B1000E7FB6217730784079507A8F199F3E92F8C
:101B2000FF2788232AF03197660F771F881FDAF77F
:101B3000952F5527442332F091505040220F331FE8
:101B4000441FD2F7BB27E91BF50B621B730B840BF9
:101B5000B109C1F222F4620F731F841FB11D3197C6
:101B60002AF0660F771F881FBB1FEFCF91505040A0
:101B70005AF041F0882332F0660F771F881F91508A
:101B80005040C1F793954BC08695779567959F5FB9
:101B9000D9F7F8CF990F0008550FAA0BE0E8FEEF30
:101BA00016161706E807F907C0F012161306E40721
:101BB000F50798F0621B730B840B950B39F40A261A
:101BC00061F0232B242B252B21F408950A2609F4F8
:101BD000A140A6958FEF811D811D089597F99F67FC
:101BE00080E870E060E00895882371F4772321F0A5
:101BF0009850872B762F07C0662311F499270DC0C4
:101C00009051862B70E060E02AF09A95660F771F5E
:101C1000881FDAF7880F9695879597F908959F3F63
:101C200031F0915020F4879577956795B795880F97
:101C3000911D9695879597F908959FEF80EC0895EB
:101C400000240A941616170618060906089500249B
:101C50000A9412161306140605060895092E039415
:101C6000000C11F4882352F0BB0F40F4BF2B11F489
:101C700060FF04C06F5F7F4F8F4F9F4F089557FDE8
:101C80009058440F551F59F05F3F71F04795880FEA
:101C900097FB991F61F09F3F79F087950895121681
:101CA00013061406551FF2CF4695F1DF08C016162D
:101CB00017061806991FF1CF8695710561050894DE
:101CC0000895E5DFA0F0BEE7B91788F4BB279F3879
:101CD00060F41616B11D672F782F8827985FF7CF0D
:101CE000869577956795B11D93959639C8F30895B4
:101CF000E894BB2766277727CB0197F908954ADF39
:101D000008F48FEF08950BD0A9CF9ADF28F09FDF5A
:101D100018F0952309F062CF90CF1124EACFAFDFFE
:101D2000A0F3959FD1F3950F50E0551F629FF001EE
:101D3000729FBB27F00DB11D639FAA27F00DB11D47
:101D4000AA1F649F6627B00DA11D661F829F2227D0
:101D5000B00DA11D621F739FB00DA11D621F839F57
:101D6000A00D611D221F749F3327A00D611D231F2D
:101D7000849F600D211D822F762F6A2F11249F577B
:101D800050408AF0E1F088234AF0EE0FFF1FBB1F9E
:101D9000661F771F881F91505040A9F79E3F51053D
:101DA00070F01CCFA6CF5F3FECF3983EDCF3869536
:101DB00077956795B795F795E7959F5FC1F7FE2BE8
:101DC000880F911D9695879597F908951F920F9208
:101DD0000FB60F9211242F933F938F939F93AF933E
:101DE000BF938091E2019091E301A091E401B09151
:101DF000E5013091E10123E0230F2D3758F50196DD
:101E0000A11DB11D2093E1018093E2019093E301B4
:101E1000A093E401B093E5018091E6019091E70180
:101E2000A091E801B091E9010196A11DB11D809337
:101E3000E6019093E701A093E801B093E901BF9117
:101E4000AF919F918F913F912F910F900FBE0F9067
:101E50001F90189526E8230F0296A11DB11DD2CF21
:101E60003FB7F8948091E6019091E701A091E801D5
:101E7000B091E90126B5A89B05C02F3F19F0019646
:101E8000A11DB11D3FBFBA2FA92F982F8827BC01D4
:101E9000CD01620F711D811D911D42E0660F771FFC
:101EA000881F991F4A95D1F70895789484B5826068
:101EB00084BD84B5816084BD85B5826085BD85B5EE
:101EC000816085BDEEE6F0E0808181608083E1E89D
:101ED000F0E01082808182608083808181608083D5
:101EE000E0E8F0E0808181608083E1EBF0E08081D8
:101EF00084608083E0EBF0E0808181608083EAE7AA
:101F0000F0E0808184608083808182608083808132
:101F1000816080838081806880831092C1000895F1
:101F2000833081F028F4813099F08230A9F008954F
:101F30008730A9F08830C9F08430B1F480918000F6
:101F40008F7D03C0809180008F77809380000895FB
:101F500084B58F7784BD089584B58F7DFBCF809144
:101F6000B0008F778093B00008958091B0008F7D8E
:101F7000F9CFCF93DF9390E0FC01E458FF4F249119
:101F800080579F4FFC0184918823C9F090E0880F0F
:101F9000991FFC01E854FF4FA591B491FC01E25553
:101FA000FF4FC591D49161110DC09FB7F8948C91EA
:101FB000209582238C938881282328839FBFDF91DB
:101FC000CF910895623051F49FB7F8943C91822FDD
:101FD000809583238C93E8812E2BEFCF8FB7F894D5
:101FE000EC912E2B2C938FBFEACF1F93CF93DF93CF
:101FF000282F30E0F901E859FF4F8491F901E458A6
:10200000FF4FD491F901E057FF4FC491CC23A1F0C9
:10201000162F811185DFEC2FF0E0EE0FFF1FE25548
:10202000FF4FA591B4918FB7F894EC91111108C0AE
:10203000D095DE23DC938FBFDF91CF911F91089560
:10204000DE2BF8CFCF93DF93282F30E0F901E8594A
:10205000FF4F8491F901E458FF4FD491F901E05703
:10206000FF4FC491CC2399F081115ADFEC2FF0E09F
:10207000EE0FFF1FEC55FF4FA591B491EC91ED23AE
:1020800081E090E009F480E0DF91CF91089580E055
:1020900090E0FACFFC01918D228D892F90E0805C39
:1020A0009F4F821B91098F7399270895FC01918D91
:1020B000828D981731F0828DE80FF11D858D90E0AB
:1020C00008958FEF9FEF0895FC01918D828D9817F1
:1020D00061F0A28DAE0FBF2FB11D5D968C91928DD8
:1020E0009F5F9F73928F90E008958FEF9FEF089509
:1020F000FC01538D448D252F30E0842F90E0821B0E
:10210000930B541710F0CF96089501970895FC0192
:10211000A48DA80FB92FB11DA35ABF4F2C91848D48
:1021200090E001968F739927848FA689B7892C93A5
:10213000A089B1898C91837080648C93938D848DF8
:10214000981306C00288F389E02D80818F7D8083FB
:102150000895CF93DF93EC01888D8823B1F0AA898D
:10216000BB89E889F9898C9185FD03C0808186FD52
:102170000CC00FB607FCF7CF8C9185FFF2CF8081A2
:1021800085FFEDCFCE01C3DFEACFDF91CF91089578
:10219000EF92FF920F931F93CF93DF93EC0181E0B7
:1021A000888F9B8D8C8D98131AC0E889F98980815E
:1021B00085FF15C09FB7F894EE89FF896083E88991
:1021C000F98980818370806480839FBF81E090E083
:1021D000DF91CF911F910F91FF90EF900895F62E10
:1021E0000B8D10E00F5F1F4F0F731127E02E8C8DAA
:1021F0008E110BC00FB607FCFACFE889F9898081F0
:1022000085FFF5CFCE0183DFF2CFEB8DEC0FFD2FF5
:10221000F11DE35AFF4FF0829FB7F8940B8FEA89C4
:10222000FB8980818062D0CFCF92DF92EF92FF92C4
:102230001F93CF93DF93EC016A017B01122FE88992
:10224000F98982E08083C11481EED806E104F104AB
:1022500099F060E079E08DE390E0A7019601F5D078
:1022600021503109410951095695479537952795D0
:10227000211580E1380790F0E889F989108260E83B
:1022800074E88EE190E0A7019601DFD0215031097A
:10229000410951095695479537952795EC85FD8558
:1022A0003083EE85FF852083188EEC89FD891083AD
:1022B000EA89FB89808180618083EA89FB8980814A
:1022C00088608083EA89FB89808180688083EA89CD
:1022D000FB8980818F7D8083DF91CF911F91FF905B
:1022E000EF90DF90CF9008951F920F920FB60F924C
:1022F00011242F938F939F93EF93FF93E091FA0113
:10230000F091FB018081E0910002F091010282FDD9
:102310001BC09081809103028F5F8F732091040214
:10232000821741F0E0910302F0E0E651FE4F958FF5
:1023300080930302FF91EF919F918F912F910F90C6
:102340000FBE0F901F9018958081F4CF1F920F92AF
:102350000FB60F9211242F933F934F935F936F9378
:102360007F938F939F93AF93BF93EF93FF938AEEE7
:1023700091E0CDDEFF91EF91BF91AF919F918F9151
:102380007F916F915F914F913F912F910F900FBE71
:102390000F901F901895EAEEF1E01382128288EEFA
:1023A00093E0A0E0B0E084839583A683B7838FEBAE
:1023B00091E09183808385EC90E09587848784EC1D
:1023C00090E09787868780EC90E0918B808B81EC02
:1023D00090E0938B828B82EC90E0958B848B86ECE3
:1023E00090E0978B868B118E128E138E148E08952B
:1023F000AF92BF92CF92DF92EF92FF920F931F9313
:10240000CF93DF936C017B018B01040F151FEB0150
:102410005E01AE18BF08C017D10759F06991D60107
:10242000ED91FC910190F081E02DC6010995892B79
:1024300079F7C501DF91CF911F910F91FF90EF9038
:10244000DF90CF90BF90AF900895A1E21A2EAA1B03
:10245000BB1BFD010DC0AA1FBB1FEE1FFF1FA21754
:10246000B307E407F50720F0A21BB30BE40BF50B51
:10247000661F771F881F991F1A9469F760957095DA
:10248000809590959B01AC01BD01CF010895EE0FA1
:0E249000FF1F0590F491E02D0994F894FFCF02
:10249E00000000CDCCCC3DCDCCCC3DCDCCCC3D0048
:1024AE00000000000000000000803F00000000005F
:1024BE00000000000000000000000000000000000E
:1024CE00000000000000000000803F0000004000FF
:1024DE00000040000000400000000000000000006E
:1024EE0000803F00000000000000000101000040DD
:1024FE0040000080BF0000803F0000404000008090
:10250E00BF0000803F0000000000000000000080BF
:10251E003F0000803F000000000000803F00008070
:10252E003F00000000000000000000803F0000009F
:10253E0000000000000000803F00000000000000CE
:10254E00000000803F00000000CE0100000000C827
:0E255E0010F8117810A9104A106410561000E1
:00000001FF
